:020000020000FC
:0200000020C01E
:02001000FFC02F
:0200340004C105
:1000400011C10FEF0DBF08E00EBFF8943898399832
:100050003A98409A419A429A3B9A3C9A439A449AD7
:100060000FEF04B900E005B90FEF0AB900E00BB9D2
:1000700000E00093C10000E80093610004E00093F9
:1000800061000E9472000E947F0002E000936800FD
:1000900007E000936C0001E000936F0001E0009323
:1000A0006E0000E000930001009301010093020143
:1000B000009303010E9484000E948D000E9496001C
:1000C0000E949F00772733274427552778943030A4
:1000D00019F0313021F0FBCF0E94B600F8CF0E941A
:1000E0000401F5CF02EC0093850007EF0093840034
:1000F00000E00093800003E000938100089501EB8D
:1001000006BD03E005BD089500910001ECEDF2E0AD
:10011000E00FF11D04910BB9089500910101ECED80
:10012000F2E0E00FF11D04910BB908950091020176
:10013000ECEDF2E0E00FF11D04910BB90895009190
:100140000301ECEDF2E0E00FF11D04910BB908950D
:10015000009105010395043629F400271BB120E81E
:1001600012271BB900930501089548C0299A2898C1
:100170004130D9F740E00091000103950A3051F574
:10018000002700930001009101010395063039F525
:100190000027009301011091020113951A3051F4C8
:1001A0001127009104010395033009F400270093FF
:1001B00004011AC0009104010230B1F41430A1F41A
:1001C0001127009103010395023099F40027009351
:1001D000030114C0009300010E9484000FC000932B
:1001E00001010E948D000AC0109302010E94960036
:1001F00005C0009303010E949F0000C0089515B13F
:1002000022E0122715B908952C982D985F9A089529
:100210000F930FB70F93329B339508E0301301C053
:100220003327303021F007C0313011F004C003C053
:10023000329B41E000C00F910FBF0F9118950F93B3
:100240000FB70F9302EC0093850007EF0093840033
:10025000303041E031300E94FF0000C00F910FBFED
:100260000F9118950F930FB70F9301EB06BD0E94E6
:10027000A8002C982D9843984498503039F051306C
:1002800059F0523079F0533099F022C000910001BA
:10029000449A0093000112C000910101439A009317
:1002A00001010CC0009102012D9A0093020106C0C9
:1002B000009103012C9A0093030100C0ECEDF2E0E1
:1002C000E00FF11D04911BB110780F77012B0BB9D2
:1002D000539553700F910FBF0F9118953F065B4FC9
:0602E000666D7D077F67DB
:00000001FF
