:020000020000FC
:0200000020C01E
:02001000DDC34E
:020034000DC4F9
:1000400017C40FEF0DBF08E00EBFF8943898399829
:100050003A98409A419A429A3B9A3C9A439A449AD7
:100060000FEF04B900E005B90FEF0AB900E00BB9D2
:1000700000E00093C10000E80093610004E00093F9
:1000800061000E94C0000E94CD0002E00093680061
:1000900007E000936C0001E000936F0001E0009323
:1000A0006E0000E000930001009301010093020143
:1000B00000930301009305010093070100930B01D6
:1000C00000930C0100930D0100930E0100930F01AA
:1000D00000930F010E94D2000E94DE000E94EA00FD
:1000E0000E94F6000E940E010E9426010E94320129
:1000F0000E943E010E944A010E94560101E00093C5
:100100000401009306010E941A010E94020188273F
:10011000442755276627A1E099277894403089F035
:100120004130B1F04230B9F04330D9F04430B1F051
:100130004530D1F04630F1F04730F9F04830B9F0B1
:10014000EDCF299A28982A982B980E947001E6CF23
:100150000E94AB01E3CF0E94E801E0CF0E944F0272
:10016000DDCF0E942202DACF0E949402D7CF0E94F4
:100170000903D4CF0E946B03D1CF0E94AB03CECF33
:1001800001EE009385000BE70093840000E00093EC
:10019000800003E000938100089501EB06BD03E0B9
:1001A00005BD089500910001E6E8F9E0E00FF11DBA
:1001B00004911BB11078012B0BB908950091010136
:1001C000E6E8F9E0E00FF11D04911BB11078012B76
:1001D0000BB9089500910201E6E8F9E0E00FF11D86
:1001E00004911BB11078012B0BB908950091030104
:1001F000E6E8F9E0E00FF11D04911BB11078012B46
:100200000BB9089500910401E6E8F9E0E00FF11D53
:1002100004911BB11078012B0BB9089500910501D1
:10022000E6E8F9E0E00FF11D04911BB11078012B15
:100230000BB9089500910601E6E8F9E0E00FF11D21
:1002400004911BB11078012B0BB90895009107019F
:10025000E6E8F9E0E00FF11D04911BB11078012BE5
:100260000BB9089500910B01E6E8F9E0E00FF11DEC
:1002700004911BB11078012B0BB9089500910C016A
:10028000E6E8F9E0E00FF11D04911BB11078012BB5
:100290000BB9089500910D01E6E8F9E0E00FF11DBA
:1002A00004911BB11078012B0BB9089500910E0138
:1002B000E6E8F9E0E00FF11D04911BB11078012B85
:1002C0000BB90895009108010395043629F400271D
:1002D0001BB120E812271BB90093080108953AC00A
:1002E0005130E9F750E00091000103950A3031F5F3
:1002F000002700930001009101010395063009F5E4
:100300000027009301011091020113950091030150
:10031000023049F01A3011F41127039500930301BC
:100320001093020117C01430C9F71127002720913C
:100330000401239520930401A395F0CF00930001BD
:1003400009C00093010106C01093020103C000938D
:10035000030100C008952C982D985F9A5130B9F58B
:1003600050E0309B0E94B801319B0E94CB012FC00E
:10037000109100011395109300011A3011F5112707
:10038000109300010091010103950630E9F4002764
:1003900000930101089510910001103021F01A9589
:1003A0001093000114C019E01093000100910101A5
:1003B000003021F00A950093010109C005E0009387
:1003C00001011093000103C00093010100C00895D2
:1003D000439844985F9A5130D1F750E0309B0E9487
:1003E000F501319B0E940B02F2CF1091020113958F
:1003F00000910301023049F01A3011F411270395DE
:10040000009303011093020105C01430C9F71127AE
:100410000027F6CF089510910201009103011030DA
:1004200029F4003019F402E013E007C0103019F489
:1004300019E00A9502C01A9500C0109302010093BA
:10044000030108952998289A2A982B980E947001F0
:100450000E94450200910A01A01739F000930A0199
:10046000009104010A3069F40FC000930A0101E011
:100470000093040100E000930501AA270E945C029A
:1004800003C00093040100C00895F9E0E0E9E90F1A
:10049000F11D00910A01049100930A0108952C981E
:1004A0002D985F9A5130F9F550E0309B0E945C0224
:1004B000319B0E94770237C093959C3011F400E085
:1004C000902F10910601139500910701013049F01A
:1004D0001A3011F4112703950093070110930601B8
:1004E00005C01330C9F711E00027F6CF08959A959B
:1004F000903009F40CE0902F109106010091070153
:10050000113029F4003019F401E012E007C0103076
:1005100019F419E00A9502C01A9500C0109306015B
:100520000093070108950895439844985F9A5130C5
:1005300041F450E0309B0E94A202319B0E94CA020B
:10054000F2CF66C00E94450200910A01A01789F00F
:1005500000930A01A3950091040103950A30B1F4B8
:100560000027009304010091050103950093050104
:1005700010C000930A0101E00093040100E0009321
:100580000501AA2706C000930A0103C000930401D5
:1005900000C008951091040100910501113059F532
:1005A000003049F520910A012F31D9F02C3179F032
:1005B0002E3119F020930A012AC0A22F20930A019C
:1005C00010E01093040103E00093050120C0A22F66
:1005D00020930A0118E01093040102E00093050142
:1005E00016C0A22F20930A0111E01093040103E02A
:1005F000009305010CC0AA95103019F419E00A9572
:1006000002C01A9500C010930401009305010895DB
:1006100008950E94700128982998513081F450E083
:10062000309B0E9414030BC000910F010395013011
:1006300039F000930F0100E00093140300C04AC09A
:100640002B9A00930F0100910B01109100010117EB
:1006500069F500930B011093000100910C011091BA
:100660000101011741F500930C0110930101009164
:100670000D0110910201011719F500930D0110935E
:10068000020100910E01109103010117F1F4009392
:100690000E01109303012A9A319B0E9450031AC045
:1006A0002A982B9800E000930F01089500930B0106
:1006B000109300010FC000930C01109301010AC0B8
:1006C00000930D011093020105C000930E011093D9
:1006D000030100C0089528982C982D985F9A2A98B5
:1006E0005130C1F550E0309B0E947A03319B0E944B
:1006F0008D036DCE10910B01139510930B011A30E1
:1007000011F5112710930B0100910C010395063090
:10071000E9F4002700930C01089510910B011030AB
:1007200021F01A9510930B0114C019E010930B01DE
:1007300000910C01003021F00A9500930C0109C0D2
:1007400005E000930C011093000141CE00930C01D1
:100750003ECE08950895439844985F9A5130A9F584
:1007600050E0309B0E94B803319B0E94CE032DC005
:1007700010910D01139500910E01023049F01A30CD
:1007800011F41127039500930E0110930D0105C07C
:100790001430C9F711270027F6CF089510910D01E5
:1007A00000910E01103029F4003019F402E013E03A
:1007B00007C0103019F419E00A9502C01A9500C05C
:1007C00010930D0100930E01089508950F930FB734
:1007D0000F93329B439509E0401301C044274030FA
:1007E000D1F032C04130C1F02FC04230C1F02CC036
:1007F0004330C1F029C04430C1F026C04530C1F0BB
:1008000023C04630C1F020C04730C1F01DC0483081
:10081000C1F01AC0C9F418C0329B51E015C0329B18
:1008200051E012C0329B51E00FC0329B51E00CC02E
:10083000329B51E009C0329B51E006C0329B51E02F
:1008400003C0329B51E000C00F910FBF0F9118956C
:100850000F930FB70F9301EE009385000BE7009302
:100860008400403051E001F40F910FBF0F911895B3
:100870000F930FB70F9301EB06BD0E9462012C98F6
:100880002D98439844984030A1F0413091F0423087
:1008900081F0433079F1443069F1453059F1463007
:1008A00029F0473019F0483009F067C00E949B04D6
:1008B00064C0603039F0613059F0623079F06330F3
:1008C00099F05BC0009100010E94D200449A55C08B
:1008D000009101010E94DE00439A4FC00091020185
:1008E0000E94EA002D9A49C0009103010E94F6007F
:1008F0002C9A43C0603039F0613059F0623079F0A1
:10090000633099F03AC0009106010E941A01449A9E
:1009100034C0009107010E942601439A2EC0009125
:1009200004010E9402012D9A28C0009105010E9435
:100930000E012C9A22C0603039F0613059F06230DB
:1009400079F0633099F018C000910B010E943201D8
:10095000449A12C000910C010E943E01439A0CC0BF
:1009600000910D010E944A012D9A06C000910E01CE
:100970000E9456012C9A00C00895639563700F91F0
:100980000FBF0F9118953F065B4F666D7D077F6720
:0C0990001F1C1F1E1F1E1F1F1E1F1E1FEE
:00000001FF
